:100000000C943A010C9459010C9459010C94590127
:100010000C9459010C945A070C945A070C946A01D9
:100020000C9459010C9459010C9459010C945901E8
:100030000C9459010C9459010C9459010C945901D8
:100040000C9459010C942F020C9459010C945901F1
:100050000C9459010C9459010C9459010C945901B8
:100060000C9459010C9459010C9459010C945901A8
:100070000C9459010C9459010C9459010C94590198
:100080000C9454030C9459010C9459010C9459018B
:100090000C9459010C945901000000000000005F0D
:1000A00000000003000300143E143E14242A7F2A9B
:1000B000124333086661364955225000050300009B
:1000C000001C2241000041221C0014083E081408B4
:1000D000083E0808005030000008080808080060C2
:1000E00060000020100804023E5149453E00040211
:1000F0007F00426151494622414949361814127F16
:100100001027454545393E494949320101710907E2
:100110003649494936264949493E003636000000ED
:10012000563600000814224100141414141400411F
:1001300022140802015109063E4159555E7E090903
:10014000097E7F494949363E414141227F41414133
:100150003E7F494949417F090909013E4141493AE8
:100160007F0808087F00417F4100304040403F7FCA
:10017000081422417F404040407F020C027F7F02F2
:1001800004087F3E4141413E7F090909061E2121A5
:10019000215E7F09090976264949493201017F011B
:1001A000013F4040403F1F2040201F7F2010207F04
:1001B00041221C224107087008076151494543004C
:1001C0007F41000002040810200000417F0004026B
:1001D0000102044040404040000102040020545409
:1001E00054787F4444443838444444443844444474
:1001F0007F385454541804047E0505085454543C64
:100200007F0804047800447D40002040443D007F86
:100210001028440000417F40007C047804787C086A
:1002200004047838444444387C1414140808141422
:10023000147C007C080404485454542004043F44B3
:10024000443C4040207C1C2040201C3C4030403C32
:1002500044281028440C5050503C4464544C4400F2
:100260000836414100007F0000414136080002018C
:100270000204020011241FBECFEFD0E2DEBFCDBFCB
:1002800011E0A0E0B1E0E0EDF0E200E00BBF02C061
:1002900007900D92AA32B107D9F711E0AAE2B1E0B6
:1002A00001C01D92AE35B107E1F70E94840C0C9499
:1002B00066100C940000279A2F9808952F9A08959D
:1002C00014BC15BC2F98089593E894BD91E095BD9A
:1002D00087BD08951F920F920FB60F9211240BB68F
:1002E0000F92EF92FF920F931F932F933F934F9391
:1002F0005F936F937F938F939F93AF93BF93EF938E
:10030000FF93CF93DF9300D000D0CDB7DEB78CE55D
:10031000E82E81E0F82EF70100811181209135014E
:100320003091360140913701509138016091390187
:1003300070913A0180913B0190913C010E945B04D5
:1003400000E018EF209140013091410140914201BD
:1003500050914301609144017091450180914601A3
:10036000909147010E945B04F70100811181209167
:100370002D0130912E0140912F015091300160915B
:1003800031017091320180913301909134010E94CA
:100390005B0400EE17E02091480130914901409143
:1003A0004A0150914B0160914C0170914D01809137
:1003B0004E0190914F010E945B0488E0E0E4F1E07F
:1003C000A5E3B1E001900D928A95E1F788E0E8E4B9
:1003D000F1E0ADE2B1E001900D928A95E1F78091F4
:1003E0003D0190913E019F938F938AE191E09F930D
:1003F0008F938E010F5F1F4F1F930F930E948F0DDE
:1004000044E150E068EC70E0C8010E94FE06809173
:100410002A018F5F80932A010F900F900F900F9009
:100420000F900F900F900F900F900F90DF91CF9142
:10043000FF91EF91BF91AF919F918F917F916F91BC
:100440005F914F913F912F911F910F91FF90EF90EE
:100450000F900BBE0F900FBE0F901F9018951F921C
:100460000F920FB60F9211240BB60F922F933F935A
:100470004F935F936F937F938F939F93AF93BF93AC
:10048000EF93FF93809140019091410150910001C1
:10049000252F332727FD3095820F931F909341011D
:1004A000809340018091420190914301820F931FFC
:1004B00090934301809342018091440190914501C2
:1004C00040910101242F332727FD3095820F931F80
:1004D000909345018093440180914601909147019A
:1004E000820F931F90934701809346012091420110
:1004F000309143018091500190915101019728174B
:10050000390730F48091400190914101892B19F411
:100510005195509300018091440190914501892BA0
:1005200019F4419540930101209146013091470112
:100530008091520190915301019728173907A1F535
:10054000209140013091410180914A0190914B01ED
:100550008217930748F12091420130914301809125
:1005600048019091490128173907F0F08091010165
:1005700081958093010180913D0190913E0101960A
:1005800090933E0180933D016AE070E00E94290D46
:10059000892B51F4809188009091890096958795D8
:1005A000909389008093880080912B0187FF18C069
:1005B00080914801909149010A9790F080914801FB
:1005C000909149010A979093490180934801809145
:1005D0004A0190914B010A9790934B0180934A01F5
:1005E00080912B011816F4F420914A0130914B01AF
:1005F00080915001909151010A972817390790F482
:1006000080914801909149010A9690934901809305
:10061000480180914A0190914B010A9690934B01B9
:1006200080934A0110922B0120914601309147019D
:1006300080915201909153018217930710F5809198
:100640003F01815080933F0120913F01220F83E0C1
:1006500090E001C0880F2A95EAF70E94640188E0C3
:10066000E2E0F1E0A0E4B1E001900D928A95E1F7BB
:1006700088E0EAE0F1E0A8E4B1E001900D928A950B
:10068000E1F7FF91EF91BF91AF919F918F917F9192
:100690006F915F914F913F912F910F900BBE0F90F3
:1006A0000FBE0F901F9018951F920F920FB60F92CA
:1006B00011240BB60F920F931F932F933F934F93D9
:1006C0005F936F937F938F939F93AF93BF93EF93BA
:1006D000FF93CF93DF9300D000D0CDB7DEB78091EA
:1006E0002A011F928F938AE191E09F938F938E014D
:1006F0000F5F1F4F1F930F930E948F0D44E150E037
:1007000068E270E0C8010E94FE0610922A010F9074
:100710000F900F900F900F900F900F900F900F90E1
:100720000F90DF91CF91FF91EF91BF91AF919F918A
:100730008F917F916F915F914F913F912F911F9179
:100740000F910F900BBE0F900FBE0F901F9018953A
:1007500093E89093B00091E09093B1008093B30040
:100760000895909355018093540126E330E020933F
:100770000040009779F480EF90E0909351018093CE
:10078000500180E491E0909353018093520188E4FA
:1007900090E034C08130910579F480E491E0909349
:1007A00051018093500180EF90E09093530180932A
:1007B000520188EE90E022C08230910579F480EFFA
:1007C00090E0909351018093500180E491E09093E8
:1007D00053018093520188E890E010C0039781F4A0
:1007E00080E491E0909351018093500180EF90E07C
:1007F000909353018093520188E290E080930041EE
:100800008AE290E08093004020E030E030930041A5
:100810002093004180915001909151010197909354
:100820000041809300418BE290E080930040309340
:100830000041209300418091520190915301019712
:1008400090930041809300410895CF93873750F4EF
:10085000883050F08D3350F48F3150F4803150F0A7
:10086000C2E009C086E702C088E004C0C0E003C05F
:10087000C1E001C0C3E021EB30E020930040C09311
:100880000041682F70E080E090E00E943F0A9B01E9
:10089000AC0160E070E080EF94E40E946D090E947A
:1008A000880770E002C075956795CA95E2F7609376
:1008B0000041CF9108950F931F93CF93DF93CDB74E
:1008C000DEB728970FB6F894DEBF0FBECDBF2983E1
:1008D0003A834B835C836D837E838F8398876981A2
:1008E0007A812B813C814D815E818F819885EAE2FE
:1008F000F0E0E0930040709300416093004130933A
:10090000004120930041EBE2F0E0E093004050937F
:100910000041409300419093004180930041ECE2FC
:10092000F0E0E09300402F5F3F4F261B370B01960E
:10093000841B950B28173907A8F4BC01677077272B
:10094000629FA001639F500D729F500D112473E0B0
:10095000969587957A95E1F7829FB001839F700DF8
:10096000112414C0B90167707727689FA001699F9F
:10097000500D789F500D112463E0369527956A95A8
:10098000E1F7289FB001299F700D1124242F2770B3
:1009900080E090E005C01093004100930041019673
:1009A0002813F9CFCA0123E0969587952A95E1F798
:1009B000860F971F20C010930041009300411093B1
:1009C00000410093004110930041009300411093B7
:1009D00000410093004110930041009300411093A7
:1009E0000041009300411093004100930041109397
:1009F0000041009300410197F0F628960FB6F89455
:100A0000DEBF0FBECDBFDF91CF911F910F91089533
:100A10000F931F93CF93DF93CDB7DEB728970FB611
:100A2000F894DEBF0FBECDBF29833A834B835C832E
:100A30006D837E838F839887D80129813A816B816A
:100A40007C814D815E81EF81F8858AE290E0809320
:100A50000040309300412093004170930041609327
:100A600000418BE290E0809300405093004140931E
:100A70000041F0930041E09300418CE290E08093CC
:100A800000400CC00D911D91109300410093004156
:100A90000196E817F907B0F72F5F3F4F621773070A
:100AA00010F0CA01F6CF28960FB6F894DEBF0FBE3D
:100AB000CDBFDF91CF911F910F9108950F931F9399
:100AC000CF93DF93CDB7DEB728970FB6F894DEBF8C
:100AD0000FBECDBF109257011092560110925901CE
:100AE000109258011A8219828091500190915101FF
:100AF0000197482F9C838B831E821D828091520117
:100B000090915301019798878F8300915C01109118
:100B10005D0120E03A815C8160E07E8198850E94E1
:100B20005B0428960FB6F894DEBF0FBECDBFDF91F1
:100B3000CF911F910F91089586E08093750080E812
:100B4000809374003F9A249A8FEC97E00197F1F715
:100B500000C0000047988FE39CE90197F1F700C0BF
:100B60000000479A9FEF2DEE82E091502040804098
:100B7000E1F700C0000088E290E08093004081E14E
:100B800090E0809300409FEF26E781E09150204065
:100B90008040E1F700C0000021E030E08BEC90E005
:100BA000809300402093004180EC90E080930040CF
:100BB00088E096E2909300418093004120E130E08C
:100BC00081EC90E0809300402093004185EC90E020
:100BD000809300408EE395E3909300418093004121
:100BE00025EB30E087EC90E08093004020930041BB
:100BF00021E030E086EF90E08093004020930041B8
:100C000080E090E0909300418093004125E530E042
:100C10008AE390E0809300402093004180E090E0E0
:100C20000E94B1030E945E05109257011092560176
:100C3000109259011092580110925D0110925C01BE
:100C40008FEF9FEF90935B0180935A0189E290E0D0
:100C5000809300409FE728E381E09150204080404E
:100C6000E1F700C0000020E030E085E390E08093F1
:100C7000004020930041EAE6F0E0808180628083BA
:100C80002C9A0895CF92DF92EF92FF920F931F93C9
:100C9000CF93DF93F0915601E091570140915801B5
:100CA00050915901982F90529F3508F08BC0BA018E
:100CB000695F7F4F25E08202C00111248850904077
:100CC0002BE230E0209300405093004140930041DC
:100CD00070930041609300412F2F3E2F89010C5FDC
:100CE0001F4FEAE2EE2EF12CFCE2CF2ED12C821B1C
:100CF000930B2AC0E09200403093004120930041C2
:100D00003093004120930041C0920040FC01E20F6B
:100D1000F31FE491DA01F1E012C0CF2FCE2329F0C6
:100D2000C0915A01D0915B0104C0C0915C01D09187
:100D30005D01D0930041C09300411196FF0F6A17E7
:100D40007B0758F72F5F3F4F0217130798F68AE289
:100D500090E0809300403093004120930041309315
:100D60000041209300418CE290E0809300400AC053
:100D700080915C0190915D019093004180930041CE
:100D80004F5F5F4F6417750798F7809156019091F8
:100D90005701069690935701809356012091500178
:100DA000309151018217930768F010925701109209
:100DB00056018091580190915901089690935901DC
:100DC00080935801DF91CF911F910F91FF90EF9089
:100DD000DF90CF9008951F93CF93DF93EC0110E045
:100DE00003C00E9442061F5FFE01E10FF11D8081DA
:100DF0008111F7CFDF91CF911F9108951F93CF936A
:100E0000DF93EC01709357016093560150935901A1
:100E10004093580110E003C00E9442061F5FFE018C
:100E2000E10FF11D80818111F7CFDF91CF911F91EB
:100E300008958DB18F748DB98EB1806B8EB987B1E5
:100E4000837C87B988B18C6388B9EAE6F0E0808159
:100E50008568808308958CB1807349F490912C014A
:100E6000903281F090912C019031E1F413C08033E5
:100E7000C9F490912C01903129F090912C0190327D
:100E800089F408C090912B01915090932B018033ED
:100E9000A1F306C090912B019F5F90932B0102C09C
:100EA000882301F380932C0180912B01089586B152
:100EB0008C7308951F920F920FB60F9211240BB6E8
:100EC0000F922F933F934F935F936F937F938F93E3
:100ED0009F93AF93BF93EF93FF930E942B0787ECF1
:100EE00090E00197F1F700C00000FF91EF91BF91F2
:100EF000AF919F918F917F916F915F914F913F91B2
:100F00002F910F900BBE0F900FBE0F901F90189552
:100F1000CF92DF92EF92FF920F931F936B017C01B0
:100F200020E030E040E05FE40E94100A87FD0EC040
:100F300020E030E040E05FE4C701B6010E943D09D7
:100F40000E949B0A8B019C01305806C0C701B60164
:100F50000E949B0A8B019C01B801C9011F910F914E
:100F6000FF90EF90DF90CF900895A4E0B0E0EBEB1E
:100F7000F7E00C943F0D7C016A01FC018081823016
:100F800008F44AC1FB019081923008F442C18430D8
:100F900079F4943009F040C1F7019181FB0181811E
:100FA000981709F439C1A2E1EA2EA1E0FA2E34C162
:100FB000943009F42EC1923091F4823009F02CC1A2
:100FC00088E0F701DA0101900D928A95E1F7FB01C3
:100FD0008181F70191818923FA0181831CC18230CB
:100FE00009F417C1F70182819381FB01A281B381CA
:100FF000F7010481158126813781FB01848095806A
:10100000A680B780FC01EA1BFB0BAF01F7FF04C011
:10101000442755274E1B5F0B403251050CF074C01E
:101020001E161F06B4F524013501042E04C0769463
:101030006794579447940A94D2F749825A826B82F4
:101040007C82412C512C3201439404C0440C551C29
:10105000661C771C4A95D2F741E0441A5108610892
:101060007108482059206A207B20812C912C540142
:10107000839445284628472819F4812C912C540143
:1010800049805A806B807C8084289528A628B728C0
:1010900046C0EF2B09F443C0840F951F2801390186
:1010A000042E04C076946794579447940A94D2F718
:1010B00049825A826B827C82412C512C32014394AA
:1010C00004C0440C551C661C771C4A95D2F741E0BD
:1010D000441A510861087108402251226222732289
:1010E00001E010E020E030E045284628472819F4C8
:1010F00000E010E0980149805A806B807C800429D0
:101100001529262937290BC0A817B90724F4812CE3
:10111000912C540104C0CD0100E010E09801F701CA
:101120004181FB015181451709F446C0442349F030
:1011300024013501401A510A620A730A930182019F
:1011400004C0081919092A093B0937FD05C0F60131
:101150001182938382830CC041E0F6014183938323
:10116000828330952095109501951F4F2F4F3F4F4B
:1011700004831583268337830EC0880F991FAA1F07
:10118000BB1FF60184839583A683B78382819381F5
:10119000019793838283F60184819581A681B7812B
:1011A000AC01BD0141505109610971094F3F5F4FC9
:1011B0006F4F7F4310F30CC0F6014183938382830A
:1011C000080D191D2A1D3B1D0483158326833783B3
:1011D00083E0F6018083448155816681778177FFC2
:1011E0001AC0DB01CA0181709927AA27BB2776950F
:1011F000679557954795842B952BA62BB72B848302
:101200009583A683B783828193810196938382839A
:1012100002C07B0101C07601C7012496E0E10C9475
:101220005B0DA0E2B0E0E7E1F9E00C944D0D6D8FAD
:101230007E8F8F8F98A3298F3A8F4B8F5C8FBE0143
:101240006F5E7F4FCE014D960E94B40BBE01675F6B
:101250007F4FCE0149960E94B40BAE014F5F5F4FA6
:10126000BE01675F7F4FCE0141960E94B5070E9485
:10127000EA0AA096E2E00C94690DA0E2B0E0E3E493
:10128000F9E00C944D0D6D8F7E8F8F8F98A3298F71
:101290003A8F4B8F5C8FBE016F5E7F4FCE014D96B4
:1012A0000E94B40BBE01675F7F4FCE0149960E943A
:1012B000B40B8A8591E089278A87AE014F5F5F4F23
:1012C000BE01675F7F4FCE0141960E94B5070E9425
:1012D000EA0AA096E2E00C94690DA8E1B0E0E3E729
:1012E000F9E00C94470D6D8B7E8B8F8B988F298B3B
:1012F0003A8B4B8B5C8BBE01675F7F4FCE0145966F
:101300000E94B40BBE016F5F7F4FCE0141960E94D9
:10131000B40B9985923008F475C08981823008F445
:1013200074C02A853A8123272A87943011F092309D
:1013300019F4981367C06CC0843039F41D861E867A
:101340001F86188A1C861B8604C0823029F484E01C
:101350008987CE0109965EC08B859C852B813C8157
:10136000821B930B9C878B874D855E856F85788963
:10137000CD80DE80EF80F8844C155D056E057F051D
:1013800038F4440F551F661F771F01979C878B8782
:10139000EFE1F0E000E010E020E030E480E090E0F9
:1013A000DC014C155D056E057F0540F0802B912B0F
:1013B000A22BB32B4C195D096E097F093695279531
:1013C00017950795440F551F661F771F319749F7EB
:1013D0008C019D010F771127222733270034110537
:1013E0002105310559F487FD09C0452B462B472BB4
:1013F00029F0805C9F4FAF4FBF4F80788D879E87CD
:10140000AF87B88BCE01099605C0CE01019602C008
:1014100082E191E00E94EA0A6896E8E00C94630D8C
:10142000A8E1B0E0E6E1FAE00C944D0D6D8B7E8B07
:101430008F8B988F298B3A8B4B8B5C8BBE01675FB0
:101440007F4FCE0145960E94B40BBE016F5F7F4F68
:10145000CE0141960E94B40B8985823058F0898173
:10146000823040F0BE016F5F7F4FCE0109960E942F
:10147000230C01C08FEF6896E2E00C94690DA8E0A0
:10148000B0E0E5E4FAE00C944B0D23E029838B01F6
:101490009C01002737FD0395112722273327402F72
:1014A0000A83611571058105910519F482E089832C
:1014B00035C02EE130E03C832B83442371F061156D
:1014C0007105810520E8920771F100271127980125
:1014D000061B170B280B390B02C08B019C01C9019D
:1014E000B8010E94740D0197181619062CF00D838F
:1014F0001E832F83388712C0082E04C0000F111FCF
:10150000221F331F0A94D2F70D831E832F8338873F
:101510002EE130E0281B390B3C832B83CE01019652
:101520000E94EA0A04C060E070E080E09FEC289628
:10153000E4E00C94670DACE0B0E0E1EAFAE00C9472
:101540004B0D69877A878B879C87BE016F5F7F4FC2
:10155000CE0109960E94B40B8981823091F18230CC
:1015600080F1843041F48A81882331F100E010E079
:1015700020E030E829C02B813C8137FD22C02F318B
:1015800031058CF78EE190E0821B930B0D811E815B
:101590002F81388504C036952795179507958A952C
:1015A000D2F78A81882381F0309520951095019596
:1015B0001F4F2F4F3F4F08C00FEF1FEF2FEF3FE799
:1015C00003C000E010E09801B801C9012C96E4E0E6
:1015D0000C94670D0F931F93CF93DF93DC01149648
:1015E0004D915D916D917C9117971196EC911197AA
:1015F0008C91823020F460618FEF90E0A6C084303F
:1016000009F49EC0823009F495C041155105610569
:10161000710509F492C012962D913C9113972238CE
:101620008FEF38070CF058C0C2E8DFEFC21BD30BB6
:10163000CA31D1056CF58A019B010C2E04C0369588
:101640002795179507950A94D2F781E090E0A0E0DE
:10165000B0E00C2E04C0880F991FAA1FBB1F0A946C
:10166000D2F70197A109B10984239523A623B723B3
:1016700041E050E060E070E0892B8A2B8B2B19F45D
:1016800040E050E0BA01402B512B622B732B03C07A
:1016900040E050E0BA01DB01CA018F779927AA2701
:1016A000BB2780349105A105B10539F447FF09C076
:1016B000405C5F4F6F4F7F4F04C0415C5F4F6F4F87
:1016C0007F4F81E090E041155105610520E47207EC
:1016D00048F580E090E026C0203831058CF5DB012C
:1016E000CA018F779927AA27BB2780349105A105C6
:1016F000B10539F447FF09C0405C5F4F6F4F7F4F22
:1017000004C0415C5F4F6F4F7F4F77FD04C0C9013C
:1017100081589F4F07C07695679557954795C901A2
:1017200080589F4F97E076956795579547959A957E
:10173000D1F70BC080E090E005C080E090E005C0EC
:101740008FEF90E040E050E0BA01982F9695E0FBD3
:1017500097F9362F80FB37F9642F752F832FDF9190
:10176000CF911F910F910895CF92DF92EF92DC01FC
:10177000FB01CC901196DC90119712968C911297E8
:101780003FE7E32EE8226E2DA60170E0982F991F07
:101790009927991F13962C91822F880F892B90E0FF
:1017A00027FB222720F92183009729F541155105B0
:1017B0006105710511F482E027C082E89FEF9383F1
:1017C000828327E0440F551F661F771F2A95D1F7A4
:1017D00083E0808309C0440F551F661F771F8281F5
:1017E000938101979383828341155105610580E4BC
:1017F000780788F320C08F3F910579F44115510592
:101800006105710519F484E0808319C0E4FE03C00A
:1018100081E0808310C010820EC08F57910993839E
:10182000828383E0808387E0440F551F661F771F04
:101830008A95D1F770644483558366837783EF90EC
:10184000DF90CF900895CF93FC01DB01908192301F
:1018500008F452C08C91823008F44EC0943071F478
:10186000843039F411962C9130E08181281B3109A4
:1018700048C08181882309F43FC03BC0843029F4EB
:1018800011968C91811138C034C0923019F4823095
:10189000B9F735C0823069F3C18111968C911197E7
:1018A000C8131DC02281338112968D919C9113978C
:1018B000821793070CF413C0281739070CF417C0CC
:1018C000448155816681778114968D919D910D900B
:1018D000BC91A02D84179507A607B70718F4C1116E
:1018E00008C00AC0481759076A077B0740F4C111AE
:1018F00003C02FEF3FEF05C021E030E002C020E041
:1019000030E0C901CF910895CF93DF93CDB7DEB713
:1019100060970FB6F894DEBF0FBECDBF80E880930E
:101920006100109261000E9419070E945B010E94F1
:101930009C058DE30E942504EE9A8DB380638DBBD8
:101940001092800098E090938100809181008160E6
:101950008093810080916F00826080936F0010926D
:101960009000909391008091910084608093910009
:101970008091710082608093710082E19AE7909378
:1019800099008093980038E0F32E43E0E42E0FEFA7
:101990001FEFEAE0F1E0DE0119968F2D01900D9224
:1019A0008A95E1F7FE013996A8E4B1E08F2D019008
:1019B0000D928A95E1F7FE013996ADE2B1E08F2DE7
:1019C00001900D928A95E1F7E2E0F1E0DE011196D7
:1019D0008F2D01900D928A95E1F7FE013196A0E4DA
:1019E000B1E08F2D01900D928A95E1F7FE013196BD
:1019F000A5E3B1E08F2D01900D928A95E1F7E09279
:101A00003F0110923E0110923D0110938900009316
:101A100088000E945E01789480913F018111FCCF83
:101A2000F8940E94600146E950E06AE570E08FE1B9
:101A300091E00E94FE062E9A07C01E9B03C00E94E2
:101A40005E0102C00E9460016799F7CF0E945E05A7
:101A5000A0CFAA1BBB1B51E107C0AA1FBB1FA61723
:101A6000B70710F0A61BB70B881F991F5A95A9F747
:101A700080959095BC01CD0108952F923F924F9291
:101A80005F926F927F928F929F92AF92BF92CF920E
:101A9000DF92EF92FF920F931F93CF93DF93CDB717
:101AA000DEB7CA1BDB0B0FB6F894DEBF0FBECDBF8F
:101AB00009942A88398848885F846E847D848C8460
:101AC0009B84AA84B984C884DF80EE80FD800C8169
:101AD0001B81AA81B981CE0FD11D0FB6F894DEBF4C
:101AE0000FBECDBFED0108950E947D0D84FF0895C6
:101AF000CB010E947D0D805F0895AA27992329F4C8
:101B0000A85F982B11F480E10895903118F4AD5F2F
:101B10009295A395990FE8F78A2F992708950F9327
:101B20001F93CF93DF93CDB7DEB760970FB6F894CE
:101B3000DEBF0FBECDBF0F89188D86E08C831A8360
:101B400009838FEF9FE79E838D83AE01455E5F4FD4
:101B5000588B4F87698D7A8DCE0101960E94C00DFA
:101B6000EF81F885E00FF11F108260960FB6F894B0
:101B7000DEBF0FBECDBFDF91CF911F910F910895B2
:101B80002F923F924F925F926F927F928F929F928D
:101B9000AF92BF92CF92DF92EF92FF920F931F937B
:101BA000CF93DF93CDB7DEB72C970FB6F894DEBF97
:101BB0000FBECDBF7C016B018A01FC01178216822A
:101BC000838181FFC7C188248394912C8C0E9D1E34
:101BD000F7019381F60193FD859193FF81916F0148
:101BE000882309F4B3C1853239F493FD859193FFBD
:101BF00081916F01853229F4B70190E00E94DC0FDA
:101C0000E7CF712C312C20E02032A8F48B3261F028
:101C100028F4803251F0833271F40BC08D3239F0E8
:101C2000803349F4216028C02260246025C02860E8
:101C300023C0206121C027FD27C0382F30533A3000
:101C400078F426FF06C0FAE07F9E300D1124732E33
:101C500013C08AE0389E300D1124332E20620CC050
:101C60008E3221F426FD72C1206406C08C3611F438
:101C7000206802C0883641F4F60193FD859193FFF8
:101C800081916F018111C0CF982F9554933018F036
:101C90009052933028F40C5F1F4FFFE3F9830DC07F
:101CA000833631F0833771F0833509F05EC023C08D
:101CB000F801808189830E5F1F4F66246394712C25
:101CC000540115C02801F2E04F0E511CF801A0800C
:101CD000B18026FF03C0672D70E002C06FEF7FEF79
:101CE000C5012C870E94D10F3C0182012C856FE732
:101CF000262E222218C02801F2E04F0E511CF801B6
:101D0000A080B18026FF03C0672D70E002C06FEF96
:101D10007FEFC5012C870E94C60F3C012C8550E83F
:101D2000252E222A820123FC1CC006C0B70180E2B6
:101D300090E00E94DC0F3A94832D90E068167906BB
:101D4000A8F30FC0F50127FC859127FE81915F0163
:101D5000B70190E00E94DC0F31103A94F1E06F1A65
:101D600071086114710471F7EEC0843611F0893680
:101D700041F5F80127FF07C060817181828193815D
:101D80000C5F1F4F08C060817181882777FD8095A7
:101D9000982F0E5F1F4F4FE6642E622297FF09C0F7
:101DA00090958095709561957F4F8F4F9F4FF0E88C
:101DB0006F2A2AE030E0A4010E940810A82EA8187B
:101DC00044C0853731F43FEEB32EB2222AE030E032
:101DD00024C099EFB92EB2228F36B9F020F488359D
:101DE00009F0B4C00DC0803721F0883709F0AEC0CB
:101DF00002C020E1B22AB4FE0BC084E0B82A08C0B9
:101E000024FF09C0E6E0BE2A06C028E030E005C095
:101E100020E130E002C020E132E0F801B7FE07C067
:101E200060817181828193810C5F1F4F06C0608148
:101E3000718180E090E00E5F1F4FA4010E940810A6
:101E4000A82EA8188FE7682E6B2066FE0BC0362DD3
:101E50003E7FA71450F464FE0AC062FC08C0362D11
:101E60003E7E05C0BA2C362D03C0BA2C01C0B72C5B
:101E700034FF0DC0FE01EA0DF11D8081803311F4A5
:101E8000397E09C032FF06C0B394B39404C0832FD7
:101E9000867809F0B39433FD14C030FF0FC07A2C5C
:101EA000B31460F4730C7B18B32C08C0B70180E244
:101EB00090E03C870E94DC0FB3943C85B314B0F3F0
:101EC00004C0B31410F43B1801C0312C34FF12C00D
:101ED000B70180E390E03C870E94DC0F3C8532FF35
:101EE0001EC031FF03C088E590E002C088E790E0A3
:101EF000B7010CC0832F867891F031FD02C080E2DB
:101F000001C08BE237FD8DE2B70190E00E94DC0F4B
:101F100006C0B70180E390E00E94DC0F7A94A7141A
:101F2000C0F3AA94F401EA0DF11DB701808190E09D
:101F30000E94DC0FA110F5CF06C0B70180E290E04F
:101F40000E94DC0F3A943110F8CF42CEF70126817F
:101F5000378102C02FEF3FEFC9012C960FB6F894DE
:101F6000DEBF0FBECDBFDF91CF911F910F91FF90CC
:101F7000EF90DF90CF90BF90AF909F908F907F9029
:101F80006F905F904F903F902F900895FC010590C7
:101F9000615070400110D8F7809590958E0F9F1F6B
:101FA0000895FC016150704001900110D8F78095B0
:101FB00090958E0F9F1F08950F931F93CF93DF93DC
:101FC0008C01EB018B8181FD03C00FEF1FEF1AC065
:101FD00082FF0DC02E813F818C819D81281739079A
:101FE00064F4E881F9810193F983E88306C0E88508
:101FF000F985802F0995892B41F78E819F81019664
:102000009F838E83C801DF91CF911F910F91089517
:10201000FA01AA27283051F1203181F1E8946F9319
:102020006E7F6E5F7F4F8F4F9F4FAF4FB1E03ED0BF
:10203000B4E03CD0670F781F891F9A1FA11D680F5D
:10204000791F8A1F911DA11D6A0F711D811D911D90
:10205000A11D20D009F468943F912AE0269F112405
:102060003019305D3193DEF6CF010895462F477069
:10207000405D4193B3E00FD0C9F7F6CF462F4F70C4
:10208000405D4A3318F0495D31FD4052419302D022
:10209000A9F7EACFB4E0A6959795879577956795C8
:1020A000BA95C9F700976105710508959B01AC01C8
:1020B0000A2E06945795479537952795BA95C9F7EF
:1020C000620F731F841F951FA01D0895F894FFCF02
:1020D000010176007A00000003005F0091003D01DD
:1020E0003F0100000000000000002530336400477D
:0A20F000616D65204F7665720000F7
:00000001FF
