:100000000C943A010C9459010C9459010C94590127
:100010000C9459010C94A80F0C94A80F0C942A135B
:100020000C9459010C9459010C9459010C945901E8
:100030000C9459010C9459010C9459010C945901D8
:100040000C9459010C94D40F0C9459010C9459013F
:100050000C9459010C9459010C9459010C945901B8
:100060000C9459010C9459010C9459010C945901A8
:100070000C9459010C9459010C9459010C94590198
:100080000C944F120C9459010C9459010C94590181
:100090000C9459010C945901000000000000005F0D
:1000A00000000003000300143E143E14242A7F2A9B
:1000B000124333086661364955225000050300009B
:1000C000001C2241000041221C0014083E081408B4
:1000D000083E0808005030000008080808080060C2
:1000E00060000020100804023E5149453E00040211
:1000F0007F00426151494622414949361814127F16
:100100001027454545393E494949320101710907E2
:100110003649494936264949493E003636000000ED
:10012000563600000814224100141414141400411F
:1001300022140802015109063E4159555E7E090903
:10014000097E7F494949363E414141227F41414133
:100150003E7F494949417F090909013E4141493AE8
:100160007F0808087F00417F4100304040403F7FCA
:10017000081422417F404040407F020C027F7F02F2
:1001800004087F3E4141413E7F090909061E2121A5
:10019000215E7F09090976264949493201017F011B
:1001A000013F4040403F1F2040201F7F2010207F04
:1001B00041221C224107087008076151494543004C
:1001C0007F41000002040810200000417F0004026B
:1001D0000102044040404040000102040020545409
:1001E00054787F4444443838444444443844444474
:1001F0007F385454541804047E0505085454543C64
:100200007F0804047800447D40002040443D007F86
:100210001028440000417F40007C047804787C086A
:1002200004047838444444387C1414140808141422
:10023000147C007C080404485454542004043F44B3
:10024000443C4040207C1C2040201C3C4030403C32
:1002500044281028440C5050503C4464544C4400F2
:100260000836414100007F0000414136080002018C
:100270000204020011241FBECFEFD0E2DEBFCDBFCB
:1002800012E0A0E0B1E0EEE4FAE300E00BBF02C050
:1002900007900D92A63FB107D9F713E0A6EFB2E0A1
:1002A00001C01D92A034B107E1F70E945B120C94CB
:1002B000251D0C94000093E89093B00091E090937A
:1002C000B1008093B30008959C0190930C03809338
:1002D0000B0386E390E0809300402115310589F4FB
:1002E00080EF90E0909308038093070380E491E00F
:1002F00090930A038093090388E490E0809300417F
:100300003BC02130310589F480E491E090930803EB
:100310008093070380EF90E090930A038093090392
:1003200088EE90E08093004127C02230310589F4A7
:1003300080EF90E0909308038093070380E491E0BE
:1003400090930A038093090388E890E0809300412A
:1003500013C02330310581F480E491E090930803C9
:100360008093070380EF90E090930A038093090342
:1003700088E290E0809300418AE290E08093004020
:1003800020E030E03093004120930041809107034A
:1003900090910803019790930041809300418BE274
:1003A00090E0809300403093004120930041809181
:1003B000090390910A0301979093004180930041B3
:1003C00008951F93682F873718F010E066E711C073
:1003D000883010F468E00CC08D3310F010E009C0D4
:1003E0008F3110F011E005C0803110F012E001C033
:1003F00013E081EB90E0809300401093004170E0A7
:10040000882777FD8095982F0E9470179B01AC017B
:1004100060E070E080EF94E40E9494160E94BE14A5
:1004200070E002C0759567951A95E2F760930041F8
:100430001F9108950F931F93DF93CF93CDB7DEB72E
:1004400028970FB6F894DEBF0FBECDBF29833A833D
:100450004B835C836D837E838F83988769817A81E8
:100460002B813C81ED81FE814F8158858AE290E0AD
:1004700080930040709300416093004130930041AD
:10048000209300418BE290E080930040F093004184
:10049000E093004150930041409300418CE290E092
:1004A000809300402F5F3F4F261B370B4F5F5F4FFE
:1004B0004E1B5F0B24173507C8F4842F877090E01C
:1004C000829FB001839F700D929F700D1124F3E005
:1004D00056954795FA95E1F7842F90E0829FF001B9
:1004E000839FF00D929FF00D112418C0822F87700A
:1004F00090E0849FB001859F700D949F700D112432
:10050000E3E036952795EA95E1F7822F90E0849F06
:10051000F001859FF00D949FF00D1124862F8770B8
:1005200005C0109300410093004181508823C9F712
:10053000CB0123E0969587952A95E1F78E0F9F1FB3
:1005400021C010930041009300411093004100939B
:10055000004110930041009300411093004100932B
:10056000004110930041009300411093004100931B
:10057000004110930041009300411093004100930B
:10058000004101970097E9F628960FB6F894DEBF70
:100590000FBECDBFCF91DF911F910F910895EF92C4
:1005A000FF920F931F93DF93CF93CDB7DEB72897BA
:1005B0000FB6F894DEBF0FBECDBF29833A834B83BD
:1005C0005C836D837E838F83988729813A81AB8199
:1005D000BC81ED80FE806F8178858AE290E0809317
:1005E00000403093004120930041B0930041A0931C
:1005F00000418BE290E080930040F0920041E09255
:10060000004170930041609300418CE290E0809340
:1006100000400FC0F801819191918F0190930041AA
:10062000809300414F5F5F4F6417750798F72F5F06
:100630003F4FA217B30710F0A701F6CF28960FB6C9
:10064000F894DEBF0FBECDBFCF91DF911F910F9108
:10065000FF90EF9008950F931F93DF93CF93CDB743
:10066000DEB728970FB6F894DEBF0FBECDBF10924D
:100670000E0310920D031092100310920F0320919D
:100680000703309108032150304080910903909175
:100690000A0301971A821982422F3C832B831E8200
:1006A0001D8298878F830091130310911403298171
:1006B0003A815C816D817E8198850E941A0228961C
:1006C0000FB6F894DEBF0FBECDBFCF91DF911F9163
:1006D0000F91089586E08093750080E88093740000
:1006E0003F9A249A80ED97E00197F1F7479880E4CC
:1006F0009CE90197F1F7479A80EB94E028EC30E011
:10070000F9013197F1F70197D9F788E290E08093EA
:10071000004081E190E08093004088E592E028EC81
:1007200030E0F9013197F1F70197D9F741E050E056
:100730008BEC90E0809300404093004180EC90E08F
:100740008093004088E096E29093004180930041BE
:1007500020E130E081EC90E0809300402093004164
:1007600085EC90E0809300408EE395E39093004108
:100770008093004125EB30E087EC90E080930040CF
:100780002093004186EF90E0809300404093004129
:1007900080E090E0909300418093004125E530E0B7
:1007A0008AE390E0809300402093004181E090E054
:1007B0000E9464010E942B0310920E0310920D03FD
:1007C0001092100310920F0310921403109213034F
:1007D0008FEF9FEF909312038093110389E290E0D3
:1007E0008093004084EF91E028EC30E0F9013197EC
:1007F000F1F70197D9F780E090E025E330E020930E
:1008000000408093004180916A00806280936A007A
:100810002C9A0895CF92DF92EF92FF920F931F933D
:10082000CF93DF93982F40910D0350910E038A01CF
:100830000C5F1F4F20910F03309110038A30A9F4F1
:1008400010920E0310920D03285F3F4F3093100358
:1008500020930F038091090390910A032817390709
:1008600008F489C00E942B0386C080528F3508F09F
:1008700082C0E901279685E09802F0011124E85032
:10088000F0408BE290E08093004030930041209351
:100890000041D0930041C0930041BAE2CB2ED12C4D
:1008A000ACE2EA2EF12C29C0C092004050930041E6
:1008B000409300415093004140930041E09200403A
:1008C000B491B901A1E013C08A2F8B2329F0809144
:1008D00011039091120304C08091130390911403AB
:1008E00090930041809300416F5F7F4FAA0FC6171E
:1008F000D70750F731964F5F5F4F04171507A0F6E3
:100900008AE290E080930040509300414093004180
:1009100050930041409300418CE290E0809300406E
:100920000AC0809113039091140390930041809327
:1009300000412F5F3F4FC217D30798F780910D03F7
:1009400090910E03069690930E0380930D032091D1
:100950000703309108038217930768F010920E0383
:1009600010920D0380910F039091100308969093BD
:10097000100380930F03DF91CF911F910F91FF9090
:10098000EF90DF90CF9008951F93CF93DF93EC010A
:1009900010E003C00E940A041F5FFE01E10FF11D79
:1009A00080818823B9F7DF91CF911F9108951F931C
:1009B000CF93DF93EC0170930E0360930D0350937C
:1009C000100340930F0310E003C00E940A041F5F4E
:1009D000FE01E10FF11D80818823B9F7DF91CF91EE
:1009E0001F9108952AE230E0209300409093004147
:1009F00080930041459690930041809300418BE2A3
:100A000090E0809300407093004160930041615FEB
:100A10007F4F70930041609300418CE290E080939F
:100A200000408091130390911403909300418093B0
:100A3000004180911303909114039093004180939F
:100A4000004180911303909114039093004180938F
:100A5000004180911303909114039093004180937F
:100A60000041509300414093004150930041409316
:100A7000004180911303909114039093004180935F
:100A8000004180911303909114039093004180934F
:100A9000004180911303909114039093004180933F
:100AA000004180911303909114039093004180932F
:100AB000004180911303909114039093004180931F
:100AC000004180911303909114039093004180930F
:100AD00000418091130390911403909300418093FF
:100AE00000418091130390911403909300418093EF
:100AF00000418091130390911403909300418093DF
:100B000000418091130390911403909300418093CE
:100B10000041509300414093004150930041409365
:100B200000418091130390911403909300418093AE
:100B3000004180911303909114039093004180939E
:100B4000004180911303909114039093004180938E
:100B5000004180911303909114039093004180937E
:100B6000004180911303909114039093004180936E
:100B7000004180911303909114039093004180935E
:100B8000004180911303909114039093004180934E
:100B9000004180911303909114039093004180933E
:100BA00000415093004140930041509300414093D5
:100BB000004180911303909114039093004180931E
:100BC000004180911303909114039093004180930E
:100BD00000418091130390911403909300418093FE
:100BE00000418091130390911403909300418093EE
:100BF00000418091130390911403909300418093DE
:100C000000418091130390911403909300418093CD
:100C100000418091130390911403909300418093BD
:100C200000418091130390911403909300418093AD
:100C3000004180911303909114039093004180939D
:100C4000004180911303909114039093004180938D
:100C50000041509300414093004150930041409324
:100C6000004180911303909114039093004180936D
:100C7000004180911303909114039093004180935D
:100C8000004180911303909114039093004180934D
:100C9000004180911303909114039093004180933D
:100CA000004180911303909114039093004180932D
:100CB000004180911303909114039093004180931D
:100CC000004180911303909114039093004180930D
:100CD00000418091130390911403909300418093FD
:100CE00000418091130390911403909300418093ED
:100CF00000418091130390911403909300418093DD
:100D00000041509300414093004150930041409373
:100D100000418091130390911403909300418093BC
:100D200000418091130390911403909300418093AC
:100D3000004180911303909114039093004180939C
:100D4000004180911303909114039093004180938C
:100D5000004180911303909114039093004180937C
:100D6000004180911303909114039093004180936C
:100D70000041509300414093004150930041409303
:100D8000004180911303909114039093004180934C
:100D9000004180911303909114039093004180933C
:100DA000004180911303909114039093004180932C
:100DB000004180911303909114039093004180931C
:100DC000004180911303909114039093004180930C
:100DD00000418091130390911403909300418093FC
:100DE00000418091130390911403909300418093EC
:100DF00000418091130390911403909300418093DC
:100E000000418091130390911403909300418093CB
:100E100000418091130390911403909300418093BB
:100E200000418091130390911403909300418093AB
:100E3000004180911303909114039093004180939B
:100E40000041509300414093004150930041409332
:100E5000004180911303909114039093004180937B
:100E6000004180911303909114039093004180936B
:100E7000004180911303909114039093004180935B
:100E8000004180911303909114039093004180934B
:100E9000004180911303909114039093004180933B
:100EA000004180911303909114039093004180932B
:100EB00000415093004140930041509300414093C2
:100EC000004180911303909114039093004180930B
:100ED00000418091130390911403909300418093FB
:100EE00000418091130390911403909300418093EB
:100EF00000418091130390911403909300418093DB
:100F000000418091130390911403909300418093CA
:100F100000418091130390911403909300418093BA
:100F200000418091130390911403909300418093AA
:100F3000004180911303909114039093004180939A
:100F4000004180911303909114039093004180938A
:100F5000004180911303909114039093004180937A
:100F60000041509300414093004150930041409311
:100F70000041509300414093004150930041409301
:100F800000415093004140930041509300414093F1
:100F900000415093004140930041509300414093E1
:100FA00000415093004140930041509300414093D1
:100FB00000415093004140930041509300414093C1
:100FC00000415093004140930041509300414093B1
:100FD00000418091130390911403909300418093FA
:100FE00000418091130390911403909300418093EA
:100FF00000418091130390911403909300418093DA
:1010000000418091130390911403909300418093C9
:1010100000418091130390911403909300418093B9
:1010200000418091130390911403909300418093A9
:101030000041809113039091140390930041809399
:101040000041809113039091140390930041809389
:101050000041509300414093004150930041409320
:101060000041509300414093004150930041409310
:101070000041509300414093004150930041409300
:1010800000415093004140930041509300414093F0
:1010900000415093004140930041509300414093E0
:1010A00000415093004140930041509300414093D0
:1010B00000415093004140930041509300414093C0
:1010C0000041809113039091140390930041809309
:1010D00000418091130390911403909300418093F9
:1010E00000418091130390911403909300418093E9
:1010F00000418091130390911403909300418093D9
:1011000000418091130390911403909300418093C8
:1011100000418091130390911403909300418093B8
:10112000004150930041409300415093004140934F
:10113000004150930041409300415093004140933F
:101140000041809113039091140390930041809388
:101150000041809113039091140390930041809378
:10116000004150930041409300415093004140930F
:1011700000415093004140930041509300414093FF
:1011800000415093004140930041509300414093EF
:101190000041809113039091140390930041809338
:1011A0000041809113039091140390930041809328
:1011B00000415093004140930041509300414093BF
:1011C00000415093004140930041509300414093AF
:1011D00000418091130390911403909300418093F8
:1011E00000418091130390911403909300418093E8
:1011F00000418091130390911403909300418093D8
:1012000000418091130390911403909300418093C7
:10121000004150930041409300415093004140935E
:10122000004150930041409300415093004140934E
:101230000041809113039091140390930041809397
:101240000041809113039091140390930041809387
:10125000004150930041409300415093004140931E
:10126000004150930041409300415093004140930E
:1012700000415093004140930041509300414093FE
:101280000041809113039091140390930041809347
:101290000041809113039091140390930041809337
:1012A00000415093004140930041509300414093CE
:1012B00000415093004140930041509300414093BE
:1012C0000041809113039091140390930041809307
:1012D00000418091130390911403909300418093F7
:1012E000004150930041409300415093004140938E
:1012F000004150930041409300415093004140937E
:10130000004150930041409300415093004140936D
:10131000004150930041409300415093004140935D
:10132000004150930041409300415093004140934D
:10133000004150930041409300415093004140933D
:10134000004150930041409300415093004140932D
:10135000004150930041409300415093004140931D
:10136000004150930041409300415093004140930D
:1013700000415093004140930041509300414093FD
:1013800000415093004140930041509300414093ED
:1013900000415093004140930041509300414093DD
:1013A00000415093004140930041509300414093CD
:1013B00000415093004140930041509300414093BD
:1013C00000415093004140930041509300414093AD
:1013D000004150930041409300415093004140939D
:1013E000004150930041409300415093004140938D
:1013F000004150930041409300415093004140937D
:10140000004150930041409300415093004140936C
:10141000004150930041409300415093004140935C
:10142000004150930041409300415093004140934C
:10143000004150930041409300415093004140933C
:10144000004150930041409300415093004140932C
:101450000041809113039091140390930041809375
:101460000041809113039091140390930041809365
:1014700000415093004140930041509300414093FC
:1014800000415093004140930041509300414093EC
:1014900000415093004140930041509300414093DC
:1014A00000415093004140930041509300414093CC
:1014B00000415093004140930041509300414093BC
:1014C00000415093004140930041509300414093AC
:1014D000004150930041409300415093004140939C
:1014E00000418091130390911403909300418093E5
:1014F00000418091130390911403909300418093D5
:10150000004150930041409300415093004140936B
:10151000004150930041409300415093004140935B
:1015200000418091130390911403909300418093A4
:101530000041809113039091140390930041809394
:10154000004150930041409300415093004140932B
:10155000004150930041409300415093004140931B
:10156000004150930041409300415093004140930B
:1015700000415093004140930041509300414093FB
:1015800000415093004140930041509300414093EB
:1015900000415093004140930041509300414093DB
:1015A00000415093004140930041509300414093CB
:1015B0000041809113039091140390930041809314
:1015C0000041809113039091140390930041809304
:1015D000004150930041409300415093004140939B
:1015E000004150930041409300415093004140938B
:1015F00000418091130390911403909300418093D4
:1016000000418091130390911403909300418093C3
:10161000004150930041409300415093004140935A
:1016200000418091130390911403909300418093A3
:101630000041809113039091140390930041809393
:101640000041809113039091140390930041809383
:101650000041809113039091140390930041809373
:101660000041809113039091140390930041809363
:101670000041809113039091140390930041809353
:101680000041809113039091140390930041809343
:101690000041809113039091140390930041809333
:1016A0000041809113039091140390930041809323
:1016B0000041809113039091140390930041809313
:1016C00000415093004140930041509300414093AA
:1016D00000418091130390911403909300418093F3
:1016E00000418091130390911403909300418093E3
:1016F000004150930041409300415093004140937A
:101700000041509300414093004150930041409369
:1017100000418091130390911403909300418093B2
:1017200000418091130390911403909300418093A2
:101730000041509300414093004150930041409339
:101740000041809113039091140390930041809382
:101750000041809113039091140390930041809372
:101760000041809113039091140390930041809362
:101770000041809113039091140390930041809352
:101780000041809113039091140390930041809342
:101790000041809113039091140390930041809332
:1017A0000041809113039091140390930041809322
:1017B0000041809113039091140390930041809312
:1017C0000041809113039091140390930041809302
:1017D00000418091130390911403909300418093F2
:1017E0000041509300414093004150930041409389
:1017F00000418091130390911403909300418093D2
:1018000000418091130390911403909300418093C1
:101810000041509300414093004150930041409358
:1018200000418091130390911403909300418093A1
:101830000041809113039091140390930041809391
:101840000041809113039091140390930041809381
:101850000041809113039091140390930041809371
:101860000041809113039091140390930041809361
:101870000041809113039091140390930041809351
:1018800000415093004140930041509300414093E8
:1018900000415093004140930041509300414093D8
:1018A0000041809113039091140390930041809321
:1018B0000041809113039091140390930041809311
:1018C00000415093004140930041509300414093A8
:1018D0000041509300414093004150930041409398
:1018E00000418091130390911403909300418093E1
:1018F00000418091130390911403909300418093D1
:1019000000418091130390911403909300418093C0
:1019100000418091130390911403909300418093B0
:1019200000418091130390911403909300418093A0
:101930000041809113039091140390930041809390
:101940000041809113039091140390930041809380
:101950000041809113039091140390930041809370
:101960000041809113039091140390930041809360
:101970000041809113039091140390930041809350
:101980000041809113039091140390930041809340
:101990000041809113039091140390930041809330
:1019A00000415093004140930041509300414093C7
:1019B00000415093004140930041509300414093B7
:1019C0000041809113039091140390930041809300
:1019D00000418091130390911403909300418093F0
:1019E0000041509300414093004150930041409387
:1019F0000041509300414093004150930041409377
:101A000000418091130390911403909300418093BF
:101A100000418091130390911403909300418093AF
:101A2000004180911303909114039093004180939F
:101A3000004180911303909114039093004180938F
:101A4000004180911303909114039093004180937F
:101A5000004180911303909114039093004180936F
:101A6000004108952AE230E0209300409093004125
:101A700080930041059690930041809300418BE252
:101A800090E0809300407093004160930041645F58
:101A90007F4F70930041609300418CE290E080930F
:101AA00000405093004140930041509300414093C7
:101AB000004180911303909114039093004180930F
:101AC00000418091130390911403909300418093FF
:101AD00000418091130390911403909300418093EF
:101AE00000418091130390911403909300418093DF
:101AF00000418091130390911403909300418093CF
:101B000000418091130390911403909300418093BE
:101B10000041509300414093004150930041409355
:101B2000004180911303909114039093004180939E
:101B3000004180911303909114039093004180938E
:101B4000004180911303909114039093004180937E
:101B5000004180911303909114039093004180936E
:101B6000004180911303909114039093004180935E
:101B7000004180911303909114039093004180934E
:101B800000415093004140930041509300414093E5
:101B9000004180911303909114039093004180932E
:101BA000004180911303909114039093004180931E
:101BB00000415093004140930041509300414093B5
:101BC00000418091130390911403909300418093FE
:101BD00000418091130390911403909300418093EE
:101BE0000041509300414093004150930041409385
:101BF00000418091130390911403909300418093CE
:101C000000418091130390911403909300418093BD
:101C100000418091130390911403909300418093AD
:101C2000004180911303909114039093004180939D
:101C3000004180911303909114039093004180938D
:101C4000004180911303909114039093004180937D
:101C50000041509300414093004150930041409314
:101C6000004180911303909114039093004180935D
:101C7000004180911303909114039093004180934D
:101C8000004180911303909114039093004180933D
:101C9000004180911303909114039093004180932D
:101CA000004180911303909114039093004180931D
:101CB000004180911303909114039093004180930D
:101CC00000415093004140930041509300414093A4
:101CD00000418091130390911403909300418093ED
:101CE00000418091130390911403909300418093DD
:101CF0000041509300414093004150930041409374
:101D000000418091130390911403909300418093BC
:101D100000418091130390911403909300418093AC
:101D20000041509300414093004150930041409343
:101D3000004180911303909114039093004180938C
:101D4000004180911303909114039093004180937C
:101D5000004180911303909114039093004180936C
:101D6000004180911303909114039093004180935C
:101D7000004180911303909114039093004180934C
:101D8000004180911303909114039093004180933C
:101D900000415093004140930041509300414093D3
:101DA000004180911303909114039093004180931C
:101DB000004180911303909114039093004180930C
:101DC00000418091130390911403909300418093FC
:101DD00000418091130390911403909300418093EC
:101DE00000418091130390911403909300418093DC
:101DF00000418091130390911403909300418093CC
:101E00000041509300414093004150930041409362
:101E100000418091130390911403909300418093AB
:101E2000004180911303909114039093004180939B
:101E30000041509300414093004150930041409332
:101E4000004180911303909114039093004180937B
:101E5000004180911303909114039093004180936B
:101E60000041509300414093004150930041409302
:101E7000004180911303909114039093004180934B
:101E8000004180911303909114039093004180933B
:101E9000004180911303909114039093004180932B
:101EA000004180911303909114039093004180931B
:101EB00000410895279A2F9808952F9A089514BCE9
:101EC00015BC2F98089593E894BD91E095BD87BD0A
:101ED00008958DB18F748DB98EB1806B8EB987B135
:101EE000837C87B988B18C6388B9EAE6F0E08081A9
:101EF0008568808308959CB1907329F48091F802DD
:101F00008032A9F406C09033D9F48091F802803170
:101F100039F48091F60281508093F602903329F4CF
:101F20008091F802803261F406C0992349F48091CF
:101F3000F802803129F48091F6028F5F8093F602D7
:101F40009093F8028091F602089586B18C730895FB
:101F50001F920F920FB60F920BB60F9211242F9370
:101F60003F934F935F936F937F938F939F93AF9321
:101F7000BF93EF93FF930E947B0F88EC90E0019753
:101F8000F1F7FF91EF91BF91AF919F918F917F9169
:101F90006F915F914F913F912F910F900BBE0F90DA
:101FA0000FBE0F901F9018951F920F920FB60F92B1
:101FB0000BB60F9211242F933F934F935F936F9320
:101FC0007F938F939F93AF93BF93EF93FF938091F2
:101FD000FA02813091F4809138039091390302978D
:101FE000909339038093380380913A0390913B0397
:101FF000029790933B0380933A03679903C081E073
:102000008093FA028091380390913903609109031B
:1020100070910A036817790758F41092FA02A4E342
:10202000B3E0E7E7F1E088E001900D928150E1F73D
:102030008091F60218160CF040C08091190390911F
:102040001A030797D0F18091190390911A0307970B
:1020500090931A038093190380911B0390911C03A2
:10206000079790931C0380931B03809177019091B5
:102070007801079790937801809377018091790197
:1020800090917A01079790937A01809379018091DA
:10209000FA02882391F480913403909135030797D5
:1020A00090933503809334038091360390913703E6
:1020B000079790933703809336038091F60287FF4A
:1020C00046C020911B0330911C038091070390911F
:1020D0000803079728173907D0F5809119039091C5
:1020E0001A03079690931A038093190380911B0398
:1020F00090911C03079690931C0380931B0380917F
:1021000077019091780107969093780180937701F9
:102110008091790190917A01079690937A0180934A
:1021200079018091FA02882391F48091340390918F
:1021300035030796909335038093340380913603DB
:10214000909137030796909337038093360310924C
:10215000F60240E050E02091340330913503FA015B
:10216000EE0FFF1FEE0FFF1FE158FE4F80819181A0
:1021700002978217930708F03FC0209136033091F1
:10218000370380819181479628173907A8F5209158
:10219000380330913903FA01EE0FFF1FEE0FFF1FD6
:1021A000EF57FE4F808191818217930728F5209188
:1021B0003A0330913B038081918147962817390774
:1021C000D8F4FA01E152FE4F80818823A9F01082F1
:1021D0001092FA02A4E3B3E0E7E7F1E088E00190AF
:1021E0000D928150E1F78091210390912203019695
:1021F00090932203809321034F5F5F4F4C30510532
:1022000009F0A9CF2091AB013091AC018091070377
:10221000909108038D978217930730F48CEE9FEF0F
:102220009093EC018093EB0180917F01909180016C
:10223000889730F484E190E09093EC018093EB0177
:1022400080910103909102038B349105E4F0109288
:1022500002031092010340E050E0FA01EE0FFF1F6D
:10226000EE0FFF1FE158FE4F208131818091EB017D
:102270009091EC01820F931F918380834F5F5F4F9A
:102280004C30510551F7809103039091040384363B
:1022900091050CF45AC0109204031092030381E0DC
:1022A0008093FB0220E030E08091050390910603CB
:1022B0000196909306038093050380910503909106
:1022C0000603489724F01092060310920503E0914C
:1022D0000503F0910603E15AFE4FE081F0E0E15280
:1022E000FE4F8081882359F1E0910503F0910603A8
:1022F000E15AFE4FE081F0E0EE0FFF1FEE0FFF1FEF
:10230000E158FE4F80819181089690933D03809320
:102310003C03E0910503F0910603E15AFE4FE08192
:10232000F0E0EE0FFF1FEE0FFF1FEF57FE4F808113
:1023300091810F9690933F0380933E0306C02F5FD9
:102340003F4F2731310509F0AFCF8091FB0281303B
:1023500049F480913E0390913F03029690933F038E
:1023600080933E0380913E0390913F030F96681740
:10237000790750F41092FB0210923D0310923C0337
:1023800010923F0310923E0320913C0330913D0395
:1023900080911B0390911C032817390718F5809131
:1023A0003C0390913D032091190330911A03039649
:1023B00028173907B8F480913E0390913F030E9699
:1023C000873E910578F080912B03815080932B03F9
:1023D0001092FB0210923D0310923C0310923F03B7
:1023E00010923E038091FA02813009F045C020919D
:1023F00038033091390380913E0390913F03039756
:1024000082179307C8F520913A0330913B038091DE
:102410003E0390913F030F962817390768F52091E6
:1024200034033091350380913C0390913D03039731
:102430008217930708F52091360330913703809176
:102440003C0390913D03089628173907A8F4109291
:10245000FB0210923D0310923C0310923F03109236
:102460003E031092FA02A4E3B3E0E7E7F1E088E06C
:1024700001900D928150E1F7FF91EF91BF91AF91E3
:102480009F918F917F916F915F914F913F912F918C
:102490000F900BBE0F900FBE0F901F9018951F92BC
:1024A0000F920FB60F9211241092F9020F900FBEE7
:1024B0000F901F9018950F931F93CF93DF9380E891
:1024C00080936100109261000E94690F0E945A0F70
:1024D0000E946A038DE30E94E101EE9A8DB380634E
:1024E0008DBB1092800098E09093810080918100D4
:1024F00081608093810080916F00826080936F0083
:10250000109290009093910080919100846080934C
:1025100091008091710082608093710082E19AE75E
:10252000909399008093980003E011E0CFEFDFEFE4
:102530001092FA02A9E1B3E0E7E4F1E088E001904B
:102540000D928150E1F7ACE2B3E0E9E1F3E088E01D
:1025500001900D928150E1F7A7E7B1E0EFE4F1E0DF
:1025600088E001900D928150E1F7A4E3B3E0E7E742
:10257000F1E088E001900D928150E1F7A3E2B3E031
:10258000E4E3F3E088E001900D928150E1F70093DD
:102590002B03109222031092210380E090E0FC01B3
:1025A000E152FE4F108301968C309105C1F7D09314
:1025B0008900C09388000E945D0F789480912B035E
:1025C000882331F080912103909122030C97B0F37E
:1025D000F8940E945F0F0E942B0380912B038823A5
:1025E00089F46091070370910803769567956553A8
:1025F00070404091090350910A035695479580E039
:1026000091E010C06091070370910803769567957B
:10261000645170404091090350910A0356954795C3
:1026200084E191E00E94D7048CE191E062E370E0E4
:1026300046EE50E00E94D7042E9A07C01E9B03C0AE
:102640000E945D0F02C00E945F0F6799F7CF0E9442
:102650002B036ECF1F920F920FB60F920BB60F92F5
:102660001124CF92DF92EF92FF920F931F932F933B
:102670003F934F935F936F937F938F939F93AF930A
:10268000BF93EF93FF93DF93CF9300D000D0CDB7EC
:10269000DEB7009113031091140320912C033091A5
:1026A0002D0340912E0350912F03609130037091C0
:1026B000310380913203909133030E941A022091DA
:1026C000190330911A0340911B0350911C03609130
:1026D0001D0370911E0380911F039091200300EE53
:1026E00017E00E941A02CC24DD247601EE0CFF1CB8
:1026F000EE0CFF1CF701E155FE4F808191818701AF
:102700000E5F1F4FF801E155FE4F608171814091CE
:102710001303509114030E94F204F601E152FE4F9C
:102720008081F701E158FE4FD801A158BE4F8823A0
:1027300049F4808191816D917C9140911303509176
:10274000140306C0808191816D917C914FEF5FEF02
:102750000E94F204F601EE0FFF1FEE0FFF1FDF01D4
:10276000A158BE4F8D919C91E155FE4F918380837E
:10277000F601EE0FFF1FEE0FFF1F3296DF01A1588B
:10278000BE4F8D919C91E155FE4F918380830894BB
:10279000C11CD11C8CE0C816D10409F0A6CF009151
:1027A00013031091140320912303309124034091CB
:1027B000250350912603609127037091280380918F
:1027C000290390912A030E941A0220913403309128
:1027D000350340913603509137036091380370916F
:1027E000390380913A0390913B0300EE17E00E9479
:1027F0001A0280911503909116036091170370914E
:10280000180340911303509114030E94320D8091DC
:10281000FB02813061F480913C0390913D03609113
:102820003E0370913F034FEF5FEF0E94320DA3E232
:10283000B3E0E4E3F3E088E001900D928150E1F72A
:10284000ACE2B3E0E9E1F3E088E001900D92815061
:10285000E1F780913C0390913D03909316038093A0
:10286000150380913E0390913F039093180380934A
:10287000170380912B0300D000D000D0EDB7FEB736
:1028800031968E010F5F1F4FADB7BEB712961C93E6
:102890000E93119742E4E42E41E0F42EF382E2829B
:1028A000848315820E944E1A8DB79EB706960FB686
:1028B000F8949EBF0FBE8DBFC80168E171E044E18E
:1028C00050E00E94D704809121039091220300D010
:1028D00000D000D0EDB7FEB73196ADB7BEB71296B7
:1028E0001C930E931197F382E282958384830E9456
:1028F0004E1A8DB79EB706960FB6F8949EBF0FBEC0
:102900008DBFC80169E170E044E150E00E94D70446
:1029100080910103909102030196909302038093AA
:1029200001038091030390910403019690930403A3
:10293000809303038091F9028F5F8093F9020F90D7
:102940000F900F900F90CF91DF91FF91EF91BF917A
:10295000AF919F918F917F916F915F914F913F9137
:102960002F911F910F91FF90EF90DF90CF900F90DC
:102970000BBE0F900FBE0F901F901895EF92FF9215
:102980000F931F937B018C0120E030E040E05FE477
:102990000E94401788238CF0C801B70120E030E086
:1029A00040E05FE40E9436160E94CE179B01AC0106
:1029B000205030404040504806C0C801B7010E9436
:1029C000CE179B01AC01B901CA011F910F91FF9075
:1029D000EF900895A0E0B0E0E0EFF4E10C94171A56
:1029E000DC012B01FA019C91923008F439C1EB0112
:1029F0008881823008F433C1943069F4843009F05E
:102A00002FC111969C9111978981981709F428C1BB
:102A1000ADEEB1E025C1843009F421C18230A9F4C2
:102A2000923009F01DC19A01AD0188E0EA010990D8
:102A3000AE01E90109929E018150C1F7E20189814D
:102A400011969C918923818308C1923009F407C1B2
:102A500012962D903C901397EB018A819B811496DE
:102A6000AD90BD90CD90DC901797EC80FD800E81ED
:102A70001F819101281B390BB90137FF04C066275C
:102A80007727621B730B603271050CF061C0121660
:102A900013066CF537014801062E04C096948794FE
:102AA000779467940A94D2F721E030E040E050E058
:102AB00004C0220F331F441F551F6A95D2F72150BF
:102AC0003040404050402E213F21402351232115CA
:102AD00031054105510521F021E030E040E050E0B2
:102AE00079018A01E628F728082919293CC0232BF7
:102AF000D1F1260E371E35014601062E04C09694EC
:102B00008794779467940A94D2F721E030E040E00C
:102B100050E004C0220F331F441F551F6A95D2F79F
:102B200021503040404050402A213B214C215D2122
:102B3000211531054105510521F021E030E040E04B
:102B400050E059016A01A628B728C828D9280BC027
:102B5000821593052CF01C01AA24BB24650103C037
:102B6000EE24FF24870111969C91D20111968C913D
:102B7000981709F445C0992339F0A80197012A193B
:102B80003B094C095D0906C0A60195012E193F09B4
:102B9000400B510B57FD08C01182338222822483DF
:102BA0003583468357831DC081E08183338222822F
:102BB00088279927DC01821B930BA40BB50B848318
:102BC0009583A683B7830DC0220F331F441F551F63
:102BD000248335834683578382819381019793832E
:102BE00082832481358146815781DA01C9010197A9
:102BF000A109B1098F5F9F4FAF4FBF4328F30BC0AF
:102C0000918333822282EA0CFB1C0C1D1D1DE48281
:102C1000F5820683178383E0808324813581468192
:102C2000578157FF1AC0C901AA2797FDA095BA2F4F
:102C300081709070A070B070569547953795279524
:102C4000822B932BA42BB52B84839583A683B783E8
:102C500082819381019693838283DF0101C0D20137
:102C6000CD01CDB7DEB7E2E10C94331AA0E2B0E0BB
:102C7000ECE3F6E10C94231A69837A838B839C83BB
:102C80002D833E834F835887E9E0EE2EF12CEC0E26
:102C9000FD1ECE010196B7010E9446198E010F5EFE
:102CA0001F4FCE010596B8010E9446198A8991E00E
:102CB00089278A8BC701B801AE01475E5F4F0E942A
:102CC000EA140E947118A096E6E00C943F1AA0E264
:102CD000B0E0EDE6F6E10C94231A69837A838B83E6
:102CE0009C832D833E834F835887F9E0EF2EF12C90
:102CF000EC0EFD1ECE010196B7010E9446198E0111
:102D00000F5E1F4FCE010596B8010E944619C701FC
:102D1000B801AE01475E5F4F0E94EA140E9471182D
:102D2000A096E6E00C943F1AA8E1B0E0EAE9F6E1EB
:102D30000C941F1A69837A838B839C832D833E8333
:102D40004F835887B9E0EB2EF12CEC0EFD1ECE011F
:102D50000196B7010E9446198E010F5E1F4FCE01EA
:102D60000596B8010E9446192985223008F47EC0D4
:102D70003989323010F4B8017CC08A859A89892754
:102D80008A87243011F0223031F4231709F06EC005
:102D90006DEE71E06EC0343039F41D861E861F86DC
:102DA000188A1C861B8604C0323021F484E089878F
:102DB000B7015FC02B853C858B899C89281B390B0B
:102DC0003C872B87ED84FE840F851889AD88BE88EB
:102DD000CF88D88CEA14FB040C051D0540F4EE0CDA
:102DE000FF1C001F111F215030403C872B8720E023
:102DF00030E040E050E080E090E0A0E0B0E460E04F
:102E000070E0EA14FB040C051D0540F0282B392B5B
:102E10004A2B5B2BEA18FB080C091D09B695A795F0
:102E200097958795EE0CFF1C001F111F6F5F7F4F5A
:102E30006F31710531F7DA01C9018F779070A07099
:102E4000B07080349105A105B10561F427FD0AC079
:102E5000E114F1040105110529F0205C3F4F4F4FAB
:102E60005F4F20782D873E874F87588BBE01675F65
:102E70007F4FCB010E9471186896EAE00C943B1AD0
:102E8000A8E1B0E0E6E4F7E10C94231A69837A83C1
:102E90008B839C832D833E834F83588789E0E82E64
:102EA000F12CEC0EFD1ECE010196B7010E944619D1
:102EB0008E010F5E1F4FCE010596B8010E94461984
:102EC0008985823040F08989823028F0C701B801B5
:102ED0000E94BE1901C08FEF6896E6E00C943F1A7D
:102EE000A8E0B0E0E6E7F7E10C94201A9B01AC0102
:102EF00083E08983DA01C9018827B7FD8395992783
:102F0000AA27BB27B82E211531054105510519F413
:102F100082E089833AC08823A9F0203080E0380716
:102F200080E0480780E8580729F460E070E080E01E
:102F30009FEC30C0EE24FF248701E21AF30A040B51
:102F4000150B02C079018A018EE1C82ED12CDC82DA
:102F5000CB82ED82FE820F831887C801B7010E94E1
:102F6000221801971816190684F4082E04C0EE0CD6
:102F7000FF1C001F111F0A94D2F7ED82FE820F83FF
:102F80001887C81AD90ADC82CB82BA82CE01019690
:102F90000E9471182896E9E00C943C1AACE0B0E06D
:102FA000E4EDF7E10C94271A69837A838B839C8381
:102FB000CE010196BE016B5F7F4F0E9446198D8145
:102FC000823061F1823050F1843021F48E81882387
:102FD00051F12EC02F81388537FD20C06E812F31F1
:102FE00031051CF06623F9F023C08EE190E0821BCE
:102FF000930B29853A854B855C8504C0569547958A
:10300000379527958A95D2F76623B1F0509540956C
:10301000309521953F4F4F4F5F4F0EC020E030E07D
:1030200040E050E009C02FEF3FEF4FEF5FE704C0F3
:1030300020E030E040E050E8B901CA012C96E2E01F
:103040000C94431AEF92FF920F931F937B018C0114
:1030500080E0E81680E0F80681E0080780E01807C5
:1030600088F48FEFE816F1040105110531F028F01E
:1030700088E090E0A0E0B0E017C080E090E0A0E041
:10308000B0E012C080E0E81680E0F80680E00807B3
:1030900081E0180728F088E190E0A0E0B0E004C0EB
:1030A00080E190E0A0E0B0E020E230E040E050E0DD
:1030B000281B390B4A0B5B0B04C016950795F79438
:1030C000E7948A95D2F7F701EB50FE4F8081281BD9
:1030D000310941095109C9011F910F91FF90EF90EA
:1030E0000895DF92EF92FF920F931F93FC01E4800B
:1030F000F58006811781D1808081823048F480E09C
:1031000090E0A0E1B0E0E82AF92A0A2B1B2BA5C029
:10311000843009F49FC0823021F4EE24FF2487011B
:1031200005C0E114F1040105110519F4E0E0F0E037
:1031300096C0628173819FEF623879070CF05BC0A3
:1031400022E83FEF261B370B2A3131052CF020E017
:1031500030E040E050E02AC0B801A701022E04C0D0
:1031600076956795579547950A94D2F781E090E058
:10317000A0E0B0E004C0880F991FAA1FBB1F2A95CA
:10318000D2F70197A109B1098E219F21A023B12374
:103190000097A105B10521F081E090E0A0E0B0E04A
:1031A0009A01AB01282B392B4A2B5B2BDA01C90181
:1031B0008F779070A070B07080349105A105B10533
:1031C00039F427FF09C0205C3F4F4F4F5F4F04C0C9
:1031D000215C3F4F4F4F5F4FE0E0F0E02030A0E038
:1031E0003A07A0E04A07A0E45A0710F0E1E0F0E057
:1031F00079018A0127C06038710564F5FB01E15847
:10320000FF4FD801C7018F779070A070B0708034E5
:103210009105A105B10539F4E7FE0DC080E490E009
:10322000A0E0B0E004C08FE390E0A0E0B0E0E80EE2
:10323000F91E0A1F1B1F17FF05C016950795F79467
:10324000E794319687E016950795F794E7948A9569
:10325000D1F705C0EE24FF248701EFEFF0E06E2FD9
:10326000679566276795902F9F77D794DD24D7942D
:103270008E2F8695492F462B582F5D29B701CA01FD
:103280001F910F91FF90EF90DF900895FC01DB01FB
:10329000408151812281622F6F7770E0221F2227A7
:1032A000221F9381892F880F822B282F30E0991FAE
:1032B0009927991F11969C93119721153105A9F50E
:1032C000411551056105710511F482E037C082E8AE
:1032D0009FEF13969C938E9312979A01AB0167E030
:1032E000220F331F441F551F6A95D1F783E08C933B
:1032F0000DC0220F331F441F551F12968D919C91B4
:103300001397019713969C938E931297203080E029
:10331000380780E0480780E4580758F314962D9347
:103320003D934D935C93179708952F3F310579F4A2
:10333000411551056105710519F484E08C930895D8
:1033400064FF03C081E08C9312C01C9210C02F5701
:10335000304013963C932E93129783E08C9387E032
:10336000440F551F661F771F8A95D1F77064149616
:103370004D935D936D937C93179708951F93DC0194
:10338000FB019C91923008F447C08081823008F4A0
:1033900043C0943051F411961C91843099F5818189
:1033A000682F70E0611B71093FC0843021F09230BA
:1033B00031F48230B9F18181882389F12DC01196D1
:1033C0001C9111978230F1F081811817D9F412966F
:1033D0002D913C911397828193818217930794F0EA
:1033E00028173907BCF014968D919D910D90BC91D2
:1033F000A02D2481358146815781281739074A0736
:103400005B0718F4112341F00AC082179307A40741
:10341000B50740F4112319F061E070E005C06FEFCB
:103420007FEF02C060E070E0CB011F9108952F9202
:103430003F924F925F926F927F928F929F92AF9244
:10344000BF92CF92DF92EF92FF920F931F93CF9391
:10345000DF93CDB7DEB7CA1BDB0B0FB6F894DEBF28
:103460000FBECDBF09942A88398848885F846E844E
:103470007D848C849B84AA84B984C884DF80EE8098
:10348000FD800C811B81AA81B981CE0FD11D0FB6A1
:10349000F894DEBF0FBECDBFED0108950F931F93CB
:1034A000DF93CF93CDB7DEB72E970FB6F894DEBF7C
:1034B0000FBECDBF0D891E8986E08C831A830983D8
:1034C0008FEF9FE79E838D839E01275E3F4FCE0146
:1034D00001966F89788DA9010E947F1A2F81388506
:1034E000020F131FF80110822E960FB6F894DEBF5C
:1034F0000FBECDBFCF91DF911F910F9108952F92F5
:103500003F924F925F926F927F928F929F92AF9273
:10351000BF92CF92DF92EF92FF920F931F93DF93B0
:10352000CF93CDB7DEB72B970FB6F894DEBF0FBEA3
:10353000CDBF3C012B015A01FC0117821682838109
:1035400081FD03C06FEF7FEFC6C19AE0892E1E0197
:103550000894211C311CF3012381F20123FD859184
:1035600023FF81912F01882309F4B2C1853239F4F8
:1035700023FD859123FF81912F01853229F490E06D
:10358000B3010E949B1CE7CF982FFF24EE249924BF
:10359000FFE1FF15D0F09B3269F09C3228F49032A5
:1035A00059F0933291F40EC09D3249F0903369F492
:1035B00041E024C052E0F52A84E0F82A28C098E0CF
:1035C000F92A25C0E0E1FE2A22C0F7FC29C0892F94
:1035D00080538A3070F4F6FE05C0989C902C11241C
:1035E000980E15C0E89CE02C1124E80EF0E2FF2AAA
:1035F0000EC09E3229F4F6FC6BC140E4F42A07C0E9
:103600009C3619F450E8F52A02C0983649F4F201C4
:1036100023FD959123FF91912F01992309F0B8CFB4
:10362000892F8554833018F08052833038F444E079
:1036300050E0A40EB51E5FE359830FC0933631F0FE
:10364000933779F0933509F056C020C0F501808199
:10365000898342E050E0A40EB51E610101E010E054
:1036600012C0F501C080D180F6FC03C06FEF7FEF80
:1036700002C0692D70E042E050E0A40EB51EC60104
:103680000E94901C8C015FE7F52214C0F501C080F8
:10369000D180F6FC03C06FEF7FEF02C0692D70E0B0
:1036A00042E050E0A40EB51EC6010E94851C8C01AC
:1036B00050E8F52AF3FE07C01AC080E290E0B3019B
:1036C0000E949B1CEA948E2D90E008171907A8F31E
:1036D0000EC0F601F7FC8591F7FE81916F0190E035
:1036E000B3010E949B1CE110EA94015010400115A7
:1036F000110579F7EAC0943611F0993669F5F7FEAD
:1037000008C0F501208131814281538184E090E03D
:103710000AC0F501808191819C01442737FD4095C5
:10372000542F82E090E0A80EB91E9FE6F92257FFC1
:1037300009C050954095309521953F4F4F4F5F4FB1
:10374000E0E8FE2ACA01B901A1012AE030E00E94A6
:10375000C71CD82ED21840C0953729F41F2D1F7EC4
:103760002AE030E01DC01F2D197F9F3661F0903791
:1037700020F4983509F0ACC00FC0903739F0983775
:1037800009F0A6C004C028E030E00AC0106114FDB2
:10379000146020E130E004C014FD166020E132E046
:1037A00017FF08C0F501608171818281938144E037
:1037B00050E008C0F50180819181BC0180E090E07B
:1037C00042E050E0A40EB51EA1010E94C71CD82EF5
:1037D000D2188FE7F82EF122F6FE0BC05EEFF5222D
:1037E000D91438F4F4FE07C0F2FC05C08FEEF822BD
:1037F00002C01D2D01C0192DF4FE0DC0FE01ED0DFE
:10380000F11D8081803319F499EEF92208C01F5F01
:10381000F2FE05C003C08F2D867809F01F5F0F2DC3
:10382000F3FC14C0F0FE0FC01E1510F09D2C0BC051
:103830009D2C9E0C911A1E2D06C080E290E0B301D3
:103840000E949B1C1F5F1E15C0F304C01E1510F4C0
:10385000E11A01C0EE2404FF0FC080E390E0B30141
:103860000E949B1C02FF1DC001FD03C088E790E081
:103870000EC088E590E00BC0802F867891F001FFA4
:1038800002C08BE201C080E2F7FC8DE290E0B30160
:103890000E949B1C06C080E390E0B3010E949B1C29
:1038A0009A94D914C0F3DA94F101ED0DF11D8081E1
:1038B00090E0B3010E949B1CDD20A9F706C080E2C6
:1038C00090E0B3010E949B1CEA94EE20C1F743CE26
:1038D000F30166817781CB012B960FB6F894DEBF9A
:1038E0000FBECDBFCF91DF911F910F91FF90EF9051
:1038F000DF90CF90BF90AF909F908F907F906F9010
:103900005F904F903F902F900895FC01059061507B
:1039100070400110D8F7809590958E0F9F1F0895E5
:10392000FC016150704001900110D8F7809590958E
:103930008E0F9F1F08950F931F93CF93DF938C01DA
:10394000EB018B8181FF1BC082FF0DC02E813F8167
:103950008C819D812817390764F4E881F9810193EE
:10396000F983E88306C0E885F985802F0995892BBE
:1039700031F48E819F8101969F838E8302C00FEF69
:103980001FEFC801DF91CF911F910F910895FA01A8
:10399000AA27283051F1203181F1E8946F936E7F8E
:1039A0006E5F7F4F8F4F9F4FAF4FB1E03ED0B4E07F
:1039B0003CD0670F781F891F9A1FA11D680F791FC0
:1039C0008A1F911DA11D6A0F711D811D911DA11DD1
:1039D00020D009F468943F912AE0269F11243019E1
:1039E000305D3193DEF6CF010895462F4770405D7C
:1039F0004193B3E00FD0C9F7F6CF462F4F70405D2B
:103A00004A3318F0495D31FD4052419302D0A9F785
:103A1000EACFB4E0A6959795879577956795BA957F
:103A2000C9F700976105710508959B01AC010A2E45
:103A300006945795479537952795BA95C9F7620F1C
:0E3A4000731F841F951FA01D0895F894FFCFDB
:103A4E00596F75204C6F73742C20547279206167F6
:103A5E0061696E00596F7520576F6E0050726573F5
:103A6E0073207468652063656E7472652062757468
:103A7E00746F6E20746F20706C617920616761695C
:103A8E006E0025303364008C00B400E500F0009F1A
:103A9E0000A000E500F00096000E01B400BE00018B
:103AAE0008020B050A030600090407020B050801AC
:103ABE0003090600070A049F00A000E500F0004677
:103ACE000064004600460064006400640046008204
:103ADE0000640082004600A0006400A0004600BE04
:103AEE00006400BE004600DC006400DC004600827C
:103AFE00006400640064006400460082004600A07A
:103B0E00006400A0004600BE006400BE004600DC5B
:103B1E00006400DC004600FA006400FA0046000172
:103B2E000101010101010101010101140000000068
:103B3E00000000000000010202030303030404045A
:103B4E00040404040405050505050505050505051C
:103B5E0005050505050606060606060606060606FC
:103B6E0006060606060606060606060606060606E7
:103B7E0006060606060707070707070707070707CC
:103B8E0007070707070707070707070707070707B7
:103B9E0007070707070707070707070707070707A7
:103BAE000707070707070707070707070707070797
:103BBE00070707070708080808080808080808087C
:103BCE000808080808080808080808080808080867
:103BDE000808080808080808080808080808080857
:103BEE000808080808080808080808080808080847
:103BFE000808080808080808080808080808080837
:103C0E000808080808080808080808080808080826
:103C1E000808080808080808080808080808080816
:103C2E000808080808080808080808080808080806
:063C3E0008080808080058
:00000001FF
